{
  "contractName": "Faucet",
  "abi": [
    {
      "inputs": [
        {
          "internalType": "uint256",
          "name": "",
          "type": "uint256"
        }
      ],
      "name": "donated",
      "outputs": [
        {
          "internalType": "uint256",
          "name": "",
          "type": "uint256"
        }
      ],
      "stateMutability": "view",
      "type": "function",
      "constant": true
    },
    {
      "inputs": [],
      "name": "numOfFunders",
      "outputs": [
        {
          "internalType": "uint256",
          "name": "",
          "type": "uint256"
        }
      ],
      "stateMutability": "view",
      "type": "function",
      "constant": true
    },
    {
      "inputs": [],
      "name": "owner",
      "outputs": [
        {
          "internalType": "address",
          "name": "",
          "type": "address"
        }
      ],
      "stateMutability": "view",
      "type": "function",
      "constant": true
    },
    {
      "stateMutability": "payable",
      "type": "receive",
      "payable": true
    },
    {
      "inputs": [
        {
          "internalType": "uint256",
          "name": "_num",
          "type": "uint256"
        }
      ],
      "name": "deposit",
      "outputs": [],
      "stateMutability": "payable",
      "type": "function",
      "payable": true
    },
    {
      "inputs": [
        {
          "internalType": "uint256",
          "name": "withdrawAmount",
          "type": "uint256"
        }
      ],
      "name": "withdraw",
      "outputs": [],
      "stateMutability": "nonpayable",
      "type": "function"
    },
    {
      "inputs": [],
      "name": "getFunders",
      "outputs": [
        {
          "internalType": "address[]",
          "name": "",
          "type": "address[]"
        }
      ],
      "stateMutability": "view",
      "type": "function",
      "constant": true
    },
    {
      "inputs": [
        {
          "internalType": "uint256",
          "name": "index",
          "type": "uint256"
        }
      ],
      "name": "getFunderAtIndex",
      "outputs": [
        {
          "internalType": "address",
          "name": "",
          "type": "address"
        }
      ],
      "stateMutability": "view",
      "type": "function",
      "constant": true
    },
    {
      "inputs": [],
      "name": "addFunds",
      "outputs": [],
      "stateMutability": "payable",
      "type": "function",
      "payable": true
    },
    {
      "inputs": [],
      "name": "test1",
      "outputs": [],
      "stateMutability": "nonpayable",
      "type": "function"
    },
    {
      "inputs": [
        {
          "internalType": "address",
          "name": "newOwner",
          "type": "address"
        }
      ],
      "name": "transferOwnership",
      "outputs": [],
      "stateMutability": "nonpayable",
      "type": "function"
    },
    {
      "inputs": [],
      "name": "emitLog",
      "outputs": [
        {
          "internalType": "bytes32",
          "name": "",
          "type": "bytes32"
        }
      ],
      "stateMutability": "pure",
      "type": "function",
      "constant": true
    }
  ],
  "bytecode": "0x60806040526000600155600060025534801561001a57600080fd5b50336000806101000a81548173ffffffffffffffffffffffffffffffffffffffff021916908373ffffffffffffffffffffffffffffffffffffffff160217905550610cc78061006a6000396000f3fe6080604052600436106100a05760003560e01c8063af7f2c9b11610064578063af7f2c9b1461015e578063b6b55f2514610189578063c218deca146101a5578063ea63a044146101e2578063f2fde38b1461020d578063f42c13bf14610236576100a7565b80632e1a7d4d146100ac578063414d9a2b146100d55780636b59084d146101125780638da5cb5b14610129578063a26759cb14610154576100a7565b366100a757005b600080fd5b3480156100b857600080fd5b506100d360048036038101906100ce91906107b1565b610261565b005b3480156100e157600080fd5b506100fc60048036038101906100f791906107b1565b6102f8565b60405161010991906107ed565b60405180910390f35b34801561011e57600080fd5b5061012761031c565b005b34801561013557600080fd5b5061013e6103ac565b60405161014b9190610849565b60405180910390f35b61015c6103d0565b005b34801561016a57600080fd5b506101736104e8565b60405161018091906107ed565b60405180910390f35b6101a3600480360381019061019e91906107b1565b6104ee565b005b3480156101b157600080fd5b506101cc60048036038101906101c791906107b1565b610546565b6040516101d99190610849565b60405180910390f35b3480156101ee57600080fd5b506101f7610583565b6040516102049190610922565b60405180910390f35b34801561021957600080fd5b50610234600480360381019061022f9190610970565b61067d565b005b34801561024257600080fd5b5061024b61074e565b60405161025891906109b6565b60405180910390f35b8067016345785d8a00008111156102ad576040517f08c379a00000000000000000000000000000000000000000000000000000000081526004016102a490610a54565b60405180910390fd5b3373ffffffffffffffffffffffffffffffffffffffff166108fc839081150290604051600060405180830381858888f193505050501580156102f3573d6000803e3d6000fd5b505050565b6005818154811061030857600080fd5b906000526020600020016000915090505481565b60008054906101000a900473ffffffffffffffffffffffffffffffffffffffff1673ffffffffffffffffffffffffffffffffffffffff163373ffffffffffffffffffffffffffffffffffffffff16146103aa576040517f08c379a00000000000000000000000000000000000000000000000000000000081526004016103a190610ae6565b60405180910390fd5b565b60008054906101000a900473ffffffffffffffffffffffffffffffffffffffff1681565b600360003373ffffffffffffffffffffffffffffffffffffffff1673ffffffffffffffffffffffffffffffffffffffff16815260200190815260200160002060009054906101000a900460ff166104e6573360046000600254815260200190815260200160002060006101000a81548173ffffffffffffffffffffffffffffffffffffffff021916908373ffffffffffffffffffffffffffffffffffffffff1602179055506002600081548092919061048890610b35565b91905055506001600360003373ffffffffffffffffffffffffffffffffffffffff1673ffffffffffffffffffffffffffffffffffffffff16815260200190815260200160002060006101000a81548160ff0219169083151502179055505b565b60025481565b670de0b6b3a7640000816105029190610bac565b600160008282546105139190610bdd565b92505081905550600534908060018154018082558091505060019003906000526020600020016000909190919091505550565b60006004600083815260200190815260200160002060009054906101000a900473ffffffffffffffffffffffffffffffffffffffff169050919050565b6060600060025467ffffffffffffffff8111156105a3576105a2610c33565b5b6040519080825280602002602001820160405280156105d15781602001602082028036833780820191505090505b50905060005b600254811015610675576004600082815260200190815260200160002060009054906101000a900473ffffffffffffffffffffffffffffffffffffffff1682828151811061062857610627610c62565b5b602002602001019073ffffffffffffffffffffffffffffffffffffffff16908173ffffffffffffffffffffffffffffffffffffffff1681525050808061066d90610b35565b9150506105d7565b508091505090565b60008054906101000a900473ffffffffffffffffffffffffffffffffffffffff1673ffffffffffffffffffffffffffffffffffffffff163373ffffffffffffffffffffffffffffffffffffffff161461070b576040517f08c379a000000000000000000000000000000000000000000000000000000000815260040161070290610ae6565b60405180910390fd5b806000806101000a81548173ffffffffffffffffffffffffffffffffffffffff021916908373ffffffffffffffffffffffffffffffffffffffff16021790555050565b60007f48656c6c6f20776f726c64000000000000000000000000000000000000000000905090565b600080fd5b6000819050919050565b61078e8161077b565b811461079957600080fd5b50565b6000813590506107ab81610785565b92915050565b6000602082840312156107c7576107c6610776565b5b60006107d58482850161079c565b91505092915050565b6107e78161077b565b82525050565b600060208201905061080260008301846107de565b92915050565b600073ffffffffffffffffffffffffffffffffffffffff82169050919050565b600061083382610808565b9050919050565b61084381610828565b82525050565b600060208201905061085e600083018461083a565b92915050565b600081519050919050565b600082825260208201905092915050565b6000819050602082019050919050565b61089981610828565b82525050565b60006108ab8383610890565b60208301905092915050565b6000602082019050919050565b60006108cf82610864565b6108d9818561086f565b93506108e483610880565b8060005b838110156109155781516108fc888261089f565b9750610907836108b7565b9250506001810190506108e8565b5085935050505092915050565b6000602082019050818103600083015261093c81846108c4565b905092915050565b61094d81610828565b811461095857600080fd5b50565b60008135905061096a81610944565b92915050565b60006020828403121561098657610985610776565b5b60006109948482850161095b565b91505092915050565b6000819050919050565b6109b08161099d565b82525050565b60006020820190506109cb60008301846109a7565b92915050565b600082825260208201905092915050565b7f203d3d3e20596f752063616e6e6f74207769746864726177206d6f726520746860008201527f616e20302e312045544800000000000000000000000000000000000000000000602082015250565b6000610a3e602a836109d1565b9150610a49826109e2565b604082019050919050565b60006020820190508181036000830152610a6d81610a31565b9050919050565b7f203d3d3e206f6e6c79206f776e65722073686f756c642063616c6c207468697360008201527f2066756e6374696f6e0000000000000000000000000000000000000000000000602082015250565b6000610ad06029836109d1565b9150610adb82610a74565b604082019050919050565b60006020820190508181036000830152610aff81610ac3565b9050919050565b7f4e487b7100000000000000000000000000000000000000000000000000000000600052601160045260246000fd5b6000610b408261077b565b91507fffffffffffffffffffffffffffffffffffffffffffffffffffffffffffffffff8203610b7257610b71610b06565b5b600182019050919050565b7f4e487b7100000000000000000000000000000000000000000000000000000000600052601260045260246000fd5b6000610bb78261077b565b9150610bc28361077b565b925082610bd257610bd1610b7d565b5b828204905092915050565b6000610be88261077b565b9150610bf38361077b565b9250827fffffffffffffffffffffffffffffffffffffffffffffffffffffffffffffffff03821115610c2857610c27610b06565b5b828201905092915050565b7f4e487b7100000000000000000000000000000000000000000000000000000000600052604160045260246000fd5b7f4e487b7100000000000000000000000000000000000000000000000000000000600052603260045260246000fdfea2646970667358221220b6f43312e27d591aa69d67040058669f55124c3cb4f03128365529c39149315164736f6c634300080e0033",
  "immutableReferences": {},
  "source": "// SPDX-License-Identifier: MIT\npragma solidity >=0.4.22 <0.9.0;\n\nimport \"./Owned.sol\";\nimport \"./Logger.sol\";\nimport \"./IFaucet.sol\";\n\ncontract Faucet is Owned, Logger, IFaucet {\n    //storage variables\n    uint256 funds = 0;\n    uint256 public numOfFunders = 0;\n\n    mapping(address => bool) private donators;\n    mapping(uint256 => address) private lutDonators;\n\n    uint256[] public donated;\n\n    modifier limitWithdraw(uint256 withdrawAmount) {\n        require(\n            withdrawAmount <= 100000000000000000,\n            \" ==> You cannot withdraw more than 0.1 ETH\"\n        );\n        _;\n    }\n\n    function deposit(uint256 _num) external payable {\n        funds += _num / 1000000000000000000;\n        donated.push(msg.value);\n    }\n\n    //this withdraws eth(whichever token) from the smart contract to a specific account\n    function withdraw(uint256 withdrawAmount)\n        external\n        limitWithdraw(withdrawAmount)\n    {\n        payable(msg.sender).transfer(withdrawAmount);\n    }\n\n    function getFunders() public view returns (address[] memory) {\n        address[] memory _funders = new address[](numOfFunders);\n\n        for (uint256 i = 0; i < numOfFunders; i++) {\n            _funders[i] = lutDonators[i];\n        }\n\n        return _funders;\n    }\n\n    function getFunderAtIndex(uint256 index) external view returns (address) {\n        // address[] memory _funders = getFunders();\n        return lutDonators[index];\n    }\n\n    //function that allows receiving of eth\n    receive() external payable {}\n\n    //function to fund the contract\n    function addFunds() external payable {\n        if (!donators[msg.sender]) {\n            lutDonators[numOfFunders] = msg.sender;\n            numOfFunders++;\n            donators[msg.sender] = true;\n        }\n    }\n\n    function test1() external onlyOwner {}\n\n    //transferring ownership of a contract\n    function transferOwnership(address newOwner) external onlyOwner {\n        owner = newOwner;\n    }\n\n    function emitLog() public pure override returns (bytes32) {\n        return \"Hello world\";\n    }\n}\n\n//const instance = await Faucet.deployed()\n//instance.addFunds({from: accounts[1], value: '1500000000000000000'})\n//instance.getFunders()\n//instance.withdraw(\"100000000000000000\", {from: accounts[2]})\n",
  "sourcePath": "/home/kibandi/projects/web3/tutorial/faucet/contracts/FaucetContract.sol",
  "compiler": {
    "name": "solc",
    "version": "0.8.14+commit.80d49f37.Emscripten.clang"
  },
  "schemaVersion": "3.4.7",
  "updatedAt": "2022-05-31T16:22:58.280Z",
  "networkType": "ethereum",
  "devdoc": {
    "kind": "dev",
    "methods": {},
    "version": 1
  },
  "userdoc": {
    "kind": "user",
    "methods": {},
    "version": 1
  }
}