{
  "contractName": "Storage",
  "abi": [
    {
      "inputs": [],
      "name": "a",
      "outputs": [
        {
          "internalType": "uint8",
          "name": "",
          "type": "uint8"
        }
      ],
      "stateMutability": "view",
      "type": "function",
      "constant": true
    },
    {
      "inputs": [],
      "name": "b",
      "outputs": [
        {
          "internalType": "uint16",
          "name": "",
          "type": "uint16"
        }
      ],
      "stateMutability": "view",
      "type": "function",
      "constant": true
    },
    {
      "inputs": [],
      "name": "c",
      "outputs": [
        {
          "internalType": "address",
          "name": "",
          "type": "address"
        }
      ],
      "stateMutability": "view",
      "type": "function",
      "constant": true
    }
  ],
  "bytecode": "0x608060405260076000806101000a81548160ff021916908360ff160217905550600a600060016101000a81548161ffff021916908361ffff160217905550731994bfb80ee0f6687bccfc1b9d2213e3c28bf10c600060036101000a81548173ffffffffffffffffffffffffffffffffffffffff021916908373ffffffffffffffffffffffffffffffffffffffff16021790555034801561009e57600080fd5b506101ec806100ae6000396000f3fe608060405234801561001057600080fd5b50600436106100415760003560e01c80630dbe671f146100465780634df7e3d014610064578063c3da42b814610082575b600080fd5b61004e6100a0565b60405161005b9190610107565b60405180910390f35b61006c6100b1565b604051610079919061013f565b60405180910390f35b61008a6100c5565b604051610097919061019b565b60405180910390f35b60008054906101000a900460ff1681565b600060019054906101000a900461ffff1681565b600060039054906101000a900473ffffffffffffffffffffffffffffffffffffffff1681565b600060ff82169050919050565b610101816100eb565b82525050565b600060208201905061011c60008301846100f8565b92915050565b600061ffff82169050919050565b61013981610122565b82525050565b60006020820190506101546000830184610130565b92915050565b600073ffffffffffffffffffffffffffffffffffffffff82169050919050565b60006101858261015a565b9050919050565b6101958161017a565b82525050565b60006020820190506101b0600083018461018c565b9291505056fea264697066735822122024738cc8d7adad0dbc60b9e3d83bf46c99258d89accad707c0870da4dd6fdc0b64736f6c634300080e0033",
  "immutableReferences": {},
  "source": "// SPDX-License-Identifier: MIT\npragma solidity >=0.4.22 <0.9.0;\n\ncontract Storage {\n    uint8 public a = 7;\n    uint16 public b = 10;\n    address public c = 0x1994BfB80EE0F6687BCCFc1B9D2213e3C28Bf10C;\n}\n",
  "sourcePath": "/home/kibandi/projects/web3/tutorial/faucet/contracts/Storage.sol",
  "compiler": {
    "name": "solc",
    "version": "0.8.14+commit.80d49f37.Emscripten.clang"
  },
  "schemaVersion": "3.4.7",
  "updatedAt": "2022-05-31T16:22:59.953Z",
  "networkType": "ethereum",
  "devdoc": {
    "kind": "dev",
    "methods": {},
    "version": 1
  },
  "userdoc": {
    "kind": "user",
    "methods": {},
    "version": 1
  }
}